:10013100CAD5B5BDD6B8C1EEA3ACCFF2C7B0210ABE
:1001410000CAD5B5BDD6B8C1EEA3ACCFF2BAF32182
:100151000A00CAD5B5BDD6B8C1EEA3ACCFF2D7F36C
:10016100210A00CAD5B5BDD6B8C1EEA3ACCFF2D332
:10017100D2210A00CAD5B5BDD6B8C1EEA3ACCDA374
:0F018100D6B9210A00039F250D9949411F011985
:10023E00C101C100010E00010D0005080000000003
:01024E0000AF
:10000300E4FDFCC3ED9FEC9E5015E4FBFA0BBB0033
:0F001300010ABA07F8BBD0F50DBD00010C80E45F
:0100220022BB
:1001DA00E4FFEF90013193600AF5993099FDC299D5
:0301EA000F80EF94
:0101ED0022EF
:1001EE00E4FFEF90014293600AF5993099FDC299B0
:0301FE000F80EF80
:0102010022DA
:10020200E4FFEF90015393600AF5993099FDC2998A
:030212000F80EF6B
:0102150022C6
:10021600E4FFEF90016493600AF5993099FDC29965
:030226000F80EF57
:0102290022B2
:10022A00E4FFEF90017593600AF5993099FDC29940
:03023A000F80EF43
:01023D00229E
:09025000D292C293D294C295220D
:09025900C292D293C294D2952204
:09026200D292C293C294D29522FB
:09026B00C292D293D294C29522F2
:09027400C292C293C294C2952209
:0300230002019047
:10019000C0E0C0D075D000C000309837C2988599B3
:1001A0000DE50DB44F0FE50E700B7408250EF8A683
:1001B0000DD200801E30001B050E7408250EF8A617
:1001C0000DC3E50E9402748094804007750E00C242
:0A01D00000D201D000D0D0D0E03200
:1000B200758920758DFD758BFD759850E4F587D295
:1000C2008ED2ACD2AF90018680513001FDC201E5E3
:1000D20008B44FF6E509B44EF1E50A24BE601A14DD
:1000E200602314602C24FE6037240570DD1201DACF
:1000F200120250900187E480221201EE12025990FE
:100102000188E4801612021612026B900189E480C3
:100112000A12020212026290018AE493F58080AA16
:0F01220012022A120274900186E493F580809BEA
:03000000020026D5
:0C002600787FE4F6D8FD75812002006DA3
:100032000200B2E493A3F8E493A34003F68001F232
:1000420008DFF48029E493A3F85407240CC8C333CF
:10005200C4540F4420C8834004F456800146F6DF9E
:10006200E4800B010204081020408090023EE47EEE
:10007200019360BCA3FF543F30E509541FFEE49393
:10008200A360010ECF54C025E060A840B8E493A35A
:10009200FAE493A3F8E493A3C8C582C8CAC583CA85
:1000A200F0A3C8C582C8CAC583CADFE9DEE780BE3D
:01024F0000AE
:00000001FF
