:03000000020F8A62
:0C0F8A00787FE4F6D8FD7581370208007E
:100E9C004B65794E756D62657200556E4C6F636B68
:100EAC00537563636573730020202020202020205D
:0E0EBC002020202020200046756C7365200049
:1008000075080275090E750C00750D1FE4F50AF5E3
:100810000BF50EF50FF510751106AE08AF097C0348
:100820007DE8120D32E50D2FF519E50C3EF5187532
:1008300090FF120F677BFF7A0E799C7D017F01127A
:100840000EEE752206E4FBFA7D017F02120ECAE568
:100850001D640B451C7003020A7A120B4F8E1C8F0D
:100860001DE51D640C451C706D7F14FE120F4D7547
:100870002206E4FBFA7D017F02120ECA7510007594
:100880001106E4F50AF50BF50EF50F20930C3097E1
:100890003C30963930953630943320920C30972D79
:1008A00030962A30952730942420910C30971E30B2
:1008B000961B309518309415309003020A623097D9
:1008C0000C309609309506309403020A627F147E3C
:1008D00000120F4D80B5E51D451C70030209A1D320
:1008E000E5119403E510940050030209A17F147EE2
:1008F00000120F4D751400751501E51124FCF51358
:10090000E51034FFF512D3E5139400E5129400408E
:1009100019AE14AF157C007D0A120D328E148F159E
:10092000E513151370E0151280DCAC14AD15AE1C88
:10093000AF1D120D32EF250BF50BEE350AF50A75DA
:100940002206E4FBFA7D017F02120ECA752203AB78
:100950000BAA0A7D017F02120ECAE5111511700261
:10096000151020930C3097FA3096F73095F43094A8
:10097000F120920C3097EB3096E83095E53094E218
:1009800020910C3097DC3096D93095D63094D32016
:10099000900C3097CD3096CA3095C73094C4020A77
:1009A0005BE51D451C7003020A62D3E5119400E566
:1009B0001094005003020A627F147E00120F4D75DE
:1009C0001400751501E51124FFF513E51034FFF54A
:1009D00012D3E5139400E51294004019AE14AF153C
:1009E0007C007D0A120D328E148F15E513151370DD
:1009F000E0151280DCAC14AD15AE1CAF1D120D322B
:100A0000EF250FF50FEE350EF50E752203AB0FFA3D
:100A10007D047F02120ECAE5111511700215102017
:100A2000930C3097FA3096F73095F43094F1209289
:100A30000C3097EB3096E83095E53094E220910C3D
:100A40003097DC3096D93095D63094D320900C3046
:100A500097CD3096CA3095C73094C47F147E00126B
:100A60000F4DAE0AAF0B7C037DE8120D32E50F2F60
:100A7000F51BE50E3EF51A02084FE509650B7004FB
:100A8000E508650A7067E50D650F7004E50C650EF5
:100A9000705B7BFF7A0E79A67D017F02120EEE124B
:100AA0000B4F8E168F17E5174516700302084FE59A
:100AB00017640B4516700302084F7BFF7A0E79B45A
:100AC0007D017F02120EEE752206E4FBFA7D017FA6
:100AD00002120ECA751000751106E4F50AF50BF541
:100AE0000EF50F120B4F8E1C8F1D02084F7BFF7AE5
:100AF0000E79C37D017F02120EEE120B4F8E168F00
:100B000017E5174516700302084FE517640B4516E5
:100B1000700302084F7BFF7A0E79B47D017F0212C9
:100B20000EEE752206E4FBFA7D017F02120ECA75F5
:100B30001000751106E4F50AF50BF50EF50F120B12
:0F0B40004F8E1C8F1D7F147E00120F4D02084F29
:0A0F4D00EF1FAC0670011E4C600F90
:0D0F570000751F027520C7D520FDD51FFABB
:030F640080E72201
:060F7B00C2A58F80D2A781
:080F81007F027EEFDEFEDFFCC3
:010F89002245
:0A0F9600C2A6120F7BC2A7020F8152
:100F1100CFCDCFCECCCE120D447C007D0A120D4434
:040F2100ED2430FF8C
:0A0F2500D2A6120F7BC2A7020F81B3
:100F2F00AE07EEFB7A0064017004ED148009EB64E8
:0E0F3F00024A7009ED243F4480FF120F9622F3
:100F67007F38120F967F0C120F967F06120F967F0F
:040F770001020F96CE
:0A0FA000AC03120F2FAF04020F255F
:060EEE008B1E8A1F892003
:100EF400120F2FE4FDAB1EAA1FA9208D827583005B
:0C0F0400120D05FF6006120F250D80E99C
:010F100022BE
:0A0E6B00EF24FFFDEE34FFFC7F0AC8
:080E75008E238F248C258D26AD
:100E7D007F017E00E4FBEBC39526E5256480F874C5
:0E0E8D008098500AAC23AD24120D320B80E881
:010E9B002234
:040ECA008A208B21CE
:100ECE00120F2FAA22EAFF7E00D394007480948022
:0F0EDE00400D120E6BAC20AD21120F111A80E6E1
:010EED0022E2
:040DE4008B828A83F1
:100DE800120F2FC3E58364809480400D7F2B120F70
:100DF8002585832C85822D80107F2D120F25C3E435
:100E08009582F52DE49583F52CAA2BEAFF7E00D375
:100E1800940074809480400D120E6BAC2CAD2D1292
:050E28000F111A80E625
:010E2D0022A2
:040D99008A308B31E0
:100D9D00120F2FAA32EAD39400748094804037EA60
:100DAD0024FFFDE434FFFC7F107E00120E75AC3085
:100DBD00AD31CFCDCFCECCCE120D44EF540FFEC3FF
:100DCD00940A74809480EE5004243080022437FFFE
:060DDD00120F251A80BF71
:010DE30022ED
:040E2E008A358B3640
:100E3200120F2FAA37EAFF7E00D3940074809480A9
:100E42004026EF24FFFDEE34FFFC7F02120E75AC4C
:100E520035AD36CFCDCFCECCCE120D44EF540124DA
:080E620030FF120F251A80CDAC
:010E6A002265
:100B4F00E4F51E7590FFC2932097167F14FE120FC7
:100B5F004D3097FD7F147E00120F4D751E01020D53
:100B6F00002096177F147E00120F4D3096FD7F14D4
:100B7F007E00120F4D751E05020D002095177F1474
:100B8F007E00120F4D3095FD7F147E00120F4D75B4
:100B9F001E09020D002094177F147E00120F4D3096
:100BAF0094FD7F147E00120F4D751E0D020D007502
:100BBF0090FFC2922097177F147E00120F4D30972F
:100BCF00FD7F147E00120F4D751E02020D00209640
:100BDF00177F147E00120F4D3096FD7F147E00128A
:100BEF000F4D751E06020D002095177F147E001203
:100BFF000F4D3095FD7F147E00120F4D751E0A02AA
:100C0F000D002094177F147E00120F4D3094FD7F3E
:100C1F00147E00120F4D751E0E020D007590FFC24F
:100C2F00912097177F147E00120F4D3097FD7F1480
:100C3F007E00120F4D751E03020D002096177F14B4
:100C4F007E00120F4D3096FD7F147E00120F4D75F2
:100C5F001E07020D002095177F147E00120F4D30D6
:100C6F0095FD7F147E00120F4D751E0B020D002097
:100C7F0094167F147E00120F4D3094FD7F147E006A
:100C8F00120F4D751E0F80697590FFC29020971639
:100C9F007F147E00120F4D3097FD7F147E00120FD0
:100CAF004D751E04804B2096167F147E00120F4D3B
:100CBF003096FD7F147E00120F4D751E0880322076
:100CCF0095167F147E00120F4D3095FD7F147E0018
:100CDF00120F4D751E0C80192094167F147E001272
:100CEF000F4D3094FD7F147E00120F4D751E108036
:050CFF0000AF1E7E00A5
:010D040022CC
:100D0500BB010CE58229F582E5833AF583E02250A3
:100D150006E92582F8E622BBFE06E92582F8E222ED
:0D0D2500E58229F582E5833AF583E4932207
:100D3200EF8DF0A4A8F0CF8CF0A428CE8DF0A42ED5
:020D4200FE228F
:100D4400BC000BBE0029EF8DF084FFADF022E4CC93
:100D5400F875F008EF2FFFEE33FEEC33FCEE9DEC5C
:100D6400984005FCEE9DFE0FD5F0E9E4CEFD22EDA2
:100D7400F8F5F0EE8420D21CFEADF075F008EF2FEC
:100D8400FFED33FD4007985006D5F0F222C398FDDD
:050D94000FD5F0EA227A
:00000001FF
