:03000000020ED815
:0C0ED800787FE4F6D8FD75813702080031
:100DEA004B65794E756D62657200556E4C6F636B1B
:100DFA005375636365737300202020202020202010
:0E0E0A002020202020200046756C73652000FB
:1008000075080275090E750C01750D33E4F50AF5CE
:100810000BF50EF50FF510751106AE08AF097C0348
:100820007DE8120C80E50D2FF519E50C3EF51875E5
:1008300090FF120EB57BFF7A0D79EA7D017F0112E0
:100840000E3C752206E4FBFA7D017F02120E18E5CC
:100850001D640B451C70030209C8120A9D8E1C8F73
:100860001DE51D640C451C70257F14FE120E9B7542
:100870002206E4FBFA7D017F02120E187510007546
:100880001106E4F50AF50BF50EF50F0209B0E51DAA
:10089000451C7003020929D3E5119403E510940067
:1008A00050030209297F147E00120E9B75140075F7
:1008B0001501E51124FCF513E51034FFF512E51DD3
:1008C000640A451C7004F51CF51DD3E5139400E57E
:1008D0001294004019AE14AF157C007D0A120C80F2
:1008E0008E148F15E513151370E0151280DCAC140F
:1008F000AD15AE1CAF1D120C80EF250BF50BEE35C0
:100900000AF50A752206E4FBFA7D017F02120E1831
:10091000752203AB0BAA0A7D017F02120E18E511A6
:100920001511700215100209B0E51D451C70030277
:1009300009B0D3E5119400E510940040737F147E54
:1009400000120E9B751400751501E51124FFF513B7
:10095000E51034FFF512E51D640A451C7004F51C12
:10096000F51DD3E5139400E51294004019AE14AFC1
:10097000157C007D0A120C808E148F15E51315135B
:1009800070E0151280DCAC14AD15AE1CAF1D120C5E
:1009900080EF250FF50FEE350EF50E752203AB0F28
:1009A000FA7D047F02120E18E51115117002151060
:1009B000AE0AAF0B7C037DE8120C80E50F2FF51B10
:1009C000E50E3EF51A02084FE509650B7004E508CF
:1009D000650A7067E50D650F7004E50C650E705BC8
:1009E0007BFF7A0D79F47D017F02120E3C120A9D85
:1009F0008E168F17E5174516700302084FE517642A
:100A00000B4516700302084F7BFF7A0E79027D01B9
:100A10007F02120E3C752206E4FBFA7D017F021272
:100A20000E18751000751106E4F50AF50BF50EF5B4
:100A30000F120A9D8E1C8F1D02084F7BFF7A0E79C4
:100A4000117D017F02120E3C120A9D8E168F17E552
:100A5000174516700302084FE517640B451670031F
:100A600002084F7BFF7A0E79027D017F02120E3C55
:100A7000752206E4FBFA7D017F02120E1875100044
:100A8000751106E4F50AF50BF50EF50F120A9D8EA9
:0D0A90001C8F1D7F147E00120E9B02084F6C
:0A0E9B00EF1FAC0670011E4C600F43
:0D0EA50000751F027520C7D520FDD51FFA6E
:030EB20080E722B4
:060EC900C2A58F80D2A734
:080ECF007F027EEFDEFEDFFC76
:010ED70022F8
:0A0EE400C2A6120EC9C2A7020ECF6B
:100E5F00CFCDCFCECCCE120C927C007D0A120C924D
:040E6F00ED2430FF3F
:0A0E7300D2A6120EC9C2A7020ECFCC
:100E7D00AE07EEFB7A0064017004ED148009EB649B
:0E0E8D00024A7009ED243F4480FF120EE42259
:100EB5007F38120EE47F0C120EE47F06120EE47FDB
:040EC50001020EE434
:0A0EEE00AC03120E7DAF04020E7378
:060E3C008B1E8A1F8920B5
:100E4200120E7DE4FDAB1EAA1FA9208D82758300C0
:0C0E5200120C53FF6006120E730D80E9B5
:010E5E002271
:0A0DB900EF24FFFDEE34FFFC7F0A7B
:080DC3008E238F248C258D2660
:100DCB007F017E00E4FBEBC39526E5256480F87478
:0E0DDB008098500AAC23AD24120C800B80E8E7
:010DE90022E7
:040E18008A208B2180
:100E1C00120E7DAA22EAFF7E00D394007480948087
:0F0E2C00400D120DB9AC20AD21120E5F1A80E6F9
:010E3B002294
:040D32008B828A83A3
:100D3600120E7DC3E58364809480400D7F2B120ED6
:100D46007385832C85822D80107F2D120E73C3E44C
:100D56009582F52DE49583F52CAA2BEAFF7E00D328
:100D6600940074809480400D120DB9AC2CAD2D12F8
:050D76000E5F1A80E68B
:010D7B002255
:040CE7008A308B3193
:100CEB00120E7DAA32EAD39400748094804037EAC6
:100CFB0024FFFDE434FFFC7F107E00120DC3AC30EB
:100D0B00AD31CFCDCFCECCCE120C92EF540FFEC364
:100D1B00940A74809480EE5004243080022437FFB0
:060D2B00120E731A80BFD6
:010D3100229F
:040D7C008A358B36F3
:100D8000120E7DAA37EAFF7E00D39400748094800F
:100D90004026EF24FFFDEE34FFFC7F02120DC3ACB2
:100DA00035AD36CFCDCFCECCCE120C92EF54012440
:080DB00030FF120E731A80CD12
:010DB8002218
:100A9D00E4F51E7590FFC2932097167F14FE120E7B
:100AAD009B3097FD7F147E00120E9B751E01020C6C
:100ABD004E2096177F147E00120E9B3096FD7F14EC
:100ACD007E00120E9B751E05020C4E2095177F148D
:100ADD007E00120E9B3095FD7F147E00120E9B75CD
:100AED001E09020C4E2094177F147E00120E9B30AF
:100AFD0094FD7F147E00120E9B751E0D020C4E751B
:100B0D0090FFC2922097177F147E00120E9B309794
:100B1D00FD7F147E00120E9B751E02020C4E209658
:100B2D00177F147E00120E9B3096FD7F147E0012EF
:100B3D000E9B751E06020C4E2095177F147E00121B
:100B4D000E9B3095FD7F147E00120E9B751E0A02C2
:100B5D000C4E2094177F147E00120E9B3094FD7F57
:100B6D00147E00120E9B751E0E020C4E7590FFC268
:100B7D00912097177F147E00120E9B3097FD7F14E6
:100B8D007E00120E9B751E03020C4E2096177F14CD
:100B9D007E00120E9B3096FD7F147E00120E9B750B
:100BAD001E07020C4E2095177F147E00120E9B30EF
:100BBD0095FD7F147E00120E9B751E0B020C4E20B0
:100BCD0094167F147E00120E9B3094FD7F147E00D0
:100BDD00120E9B751E0F80697590FFC2902097169F
:100BED007F147E00120E9B3097FD7F147E00120E37
:100BFD009B751E04804B2096167F147E00120E9B53
:100C0D003096FD7F147E00120E9B751E08803220DB
:100C1D0095167F147E00120E9B3095FD7F147E007D
:100C2D00120E9B751E0C80192094167F147E0012D7
:100C3D000E9B3094FD7F147E00120E9B751E10804E
:050C4D0000AF1E7E0057
:010C5200227F
:100C5300BB010CE58229F582E5833AF583E0225056
:100C630006E92582F8E622BBFE06E92582F8E222A0
:0D0C7300E58229F582E5833AF583E49322BA
:100C8000EF8DF0A4A8F0CF8CF0A428CE8DF0A42E88
:020C9000FE2242
:100C9200BC000BBE0029EF8DF084FFADF022E4CC46
:100CA200F875F008EF2FFFEE33FEEC33FCEE9DEC0F
:100CB200984005FCEE9DFE0FD5F0E9E4CEFD22ED55
:100CC200F8F5F0EE8420D21CFEADF075F008EF2F9F
:100CD200FFED33FD4007985006D5F0F222C398FD90
:050CE2000FD5F0EA222D
:00000001FF
