:03000000020A668B
:0C0A6600787FE4F6D8FD75812602099720
:060A5700C2A58F80D2A7AA
:080A5D007F027EEFDEFEDFFCEC
:010A6500226E
:0A0A7200C2A6120A57C2A7020A5DCD
:100A0700CFCDCFCECCCE12083F7C007D0A12083F57
:040A1700ED2430FF9B
:0A0A1B00D2A6120A57C2A7020A5D14
:100A2500AE07EEFB7A0064017004ED148009EB64F7
:0E0A3500024A7009ED243F4480FF120A72222B
:100A43007F38120A727F0C120A727F06120A727FB3
:040A530001020A7220
:0A0A7C00AC03120A25AF04020A1BA6
:0609E4008B248A25892600
:1009EA00120A25E4FDAB24AA25A9268D8275830067
:0C09FA00120800FF6006120A1B0D80E9C5
:010A060022CD
:0A096600EF24FFFDEE34FFFC7F0AD2
:080970008E0F8F108C118D1207
:100978007F017E00E4FBEBC39512E5116480F874F7
:0E0988008098500AAC0FAD1012082D0B80E8BD
:01099600223E
:0409C0008A0C8B0D05
:1009C400120A25AA0EEAFF7E00D394007480948054
:0F09D400400D120966AC0CAD0D120A071A80E631
:0109E30022F1
:0408DF008B828A83FB
:1008E300120A25C3E58364809480400D7F2B120A8E
:1008F3001B85831885821980107F2D120A1BC3E480
:100903009582F519E49583F518AA17EAFF7E00D3BB
:10091300940074809480400D120966AC18AD1912CE
:050923000A071A80E63E
:0109280022AC
:040894008A1C8B1D12
:10089800120A25AA1EEAD39400748094804037EA8D
:1008A80024FFFDE434FFFC7F107E00120970AC1CAD
:1008B800AD1DCFCDCFCECCCE12083FEF540FFEC327
:1008C800940A74809480EE5004243080022437FF08
:0608D800120A1B1A80BF8A
:0108DE0022F7
:040929008A218B2272
:10092D00120A25AA23EAFF7E00D3940074809480D6
:10093D004026EF24FFFDEE34FFFC7F02120970AC60
:10094D0021AD22CFCDCFCECCCE12083FEF54012416
:08095D0030FF120A1B1A80CDC5
:01096500226F
:1009970075086F75099A120A43E508FB7A00750E08
:1009A700037D017F021209C0E509FB7A00750E037A
:0909B7007D047F021209C080E0FA
:10080000BB010CE58229F582E5833AF583E02250AD
:1008100006E92582F8E622BBFE06E92582F8E222F7
:0D082000E58229F582E5833AF583E4932211
:10082D00EF8DF0A4A8F0CF8CF0A428CE8DF0A42EDF
:02083D00FE2299
:10083F00BC000BBE0029EF8DF084FFADF022E4CC9D
:10084F00F875F008EF2FFFEE33FEEC33FCEE9DEC66
:10085F00984005FCEE9DFE0FD5F0E9E4CEFD22EDAC
:10086F00F8F5F0EE8420D21CFEADF075F008EF2FF6
:10087F00FFED33FD4007985006D5F0F222C398FDE7
:05088F000FD5F0EA2284
:00000001FF
