:03000000020A2DC4
:0C0A2D00787FE4F6D8FD7581240208F6FD
:090A39003F065B4F666D7D077FEF
:0A0A1300EFD3940074809480400F2C
:0C0A1D007523027524EFD524FDD523FAC3
:040A29001F80E72221
:10099400EF14B4080050519009A975F003A4C5835D
:1009A40025F0C583730209C10209C50209CC0209F5
:1009B400D00209D70209DB0209E20209E6D2A280C9
:1009C40002C2A2D2A3D2A422D2A28002C2A2C2A3F1
:1009D400D2A422D2A28002C2A2D2A3C2A422D2A2B0
:0909E4008002C2A2C2A3C2A42237
:0209ED008F1960
:1009EF00781A7C007D007BFF7A0A79397E007F09B7
:1009FF001208D0741A2519F8E6F5807F01120A1330
:030A0F00E4F5808B
:010A120022C1
:1008F600750801750902750A03750B04750C0575F3
:100906000D06750E07750F08E4F5107511017512C1
:100916000275130375140475150575160675170704
:10092600751808AF08120994AF151209ED7F011268
:100936000A13AF09120994AF121209ED7F01120AC8
:1009460013AF0A120994AF101209ED7F01120A13B0
:10095600AF0B120994AF111209ED7F01120A13AF02
:100966000C120994AF131209ED7F01120A13AF0D91
:10097600120994AF111209ED7F01120A13AF0E127C
:0E0986000994AF141209ED7F01120A13809537
:10080000E709F608DFFA8046E709F208DFFA803EDA
:1008100088828C83E709F0A3DFFA8032E309F608C7
:10082000DFFA8078E309F208DFFA807088828C832F
:10083000E309F0A3DFFA806489828A83E0A3F608E3
:10084000DFFA805889828A83E0A3F208DFFA804CBD
:1008500080D280FA80C680D4806980F28033801094
:1008600080A680EA809A80A880DA80E280CA8033FD
:1008700089828A83ECFAE493A3C8C582C8CCC58375
:10088000CCF0A3C8C582C8CCC583CCDFE9DEE78045
:100890000D89828A83E493A3F608DFF9ECFAA9F0C4
:1008A000EDFB2289828A83ECFAE0A3C8C582C8CC1A
:1008B000C583CCF0A3C8C582C8CCC583CCDFEADE33
:1008C000E880DB89828A83E493A3F208DFF980CC95
:1008D00088F0EF60010E4E60C388F0ED2402B4048E
:1008E0000050B9F582EB2402B4040050AF23234535
:0608F00082239008507302
:00000001FF
