:030000000209FCF6
:0C09FC00787FE4F6D8FD758116020984AE
:100984007D017C007F017E001208F67D027C007FE1
:10099400027E001208F67D037C007F037E001208AD
:1009A400F67D047C007F047E001208F67D057C0041
:1009B4007F057E001208F67D067C007F067E00120D
:1009C40008F67D077C007F077E001208F67D087C10
:0A09D400007F087E001208F680A6DE
:0909DE00D3EF9400EE94004014E4
:0D09E700007515027516C7D516FDD515FA59
:0809F400EF1F70E61E80E322F4
:090A08003F065B4F666D7D077F20
:0808F6008E088F098C0A8D0B9E
:1008FE00780C7C007D007BFF7A0A79087E007F09E8
:10090E001208D0E508705CE50914B4080050549044
:10091E00092B75F003A4C58325F0C5837302094323
:10092E0002094702094F02095302095B02095F02DD
:10093E00096702096BD2A28002C2A2D2A3D2A480FE
:10094E0022D2A28002C2A2C2A3D2A48016D2A280B8
:10095E0002C2A2D2A3C2A4800AD2A28002C2A2C2A2
:10096E00A3C2A4740C250BF8E6F5807FE87E031273
:05097E0009DEE4F58034
:010983002251
:10080000E709F608DFFA8046E709F208DFFA803EDA
:1008100088828C83E709F0A3DFFA8032E309F608C7
:10082000DFFA8078E309F208DFFA807088828C832F
:10083000E309F0A3DFFA806489828A83E0A3F608E3
:10084000DFFA805889828A83E0A3F208DFFA804CBD
:1008500080D280FA80C680D4806980F28033801094
:1008600080A680EA809A80A880DA80E280CA8033FD
:1008700089828A83ECFAE493A3C8C582C8CCC58375
:10088000CCF0A3C8C582C8CCC583CCDFE9DEE78045
:100890000D89828A83E493A3F608DFF9ECFAA9F0C4
:1008A000EDFB2289828A83ECFAE0A3C8C582C8CC1A
:1008B000C583CCF0A3C8C582C8CCC583CCDFEADE33
:1008C000E880DB89828A83E493A3F208DFF980CC95
:1008D00088F0EF60010E4E60C388F0ED2402B4048E
:1008E0000050B9F582EB2402B4040050AF23234535
:0608F00082239008507302
:00000001FF
