:03000000020BC828
:0C0BC800787FE4F6D8FD758123020C0F45
:10080000E4F5227590FFC2932097167F14FE120D17
:10081000DA3097FD7F147E00120DDA75220102098D
:10082000B12096177F147E00120DDA3096FD7F14EA
:100830007E00120DDA7522050209B12095177F148A
:100840007E00120DDA3095FD7F147E00120DDA75F0
:1008500022090209B12094177F147E00120DDA30AC
:1008600094FD7F147E00120DDA75220D0209B17518
:1008700090FFC2922097177F147E00120DDA3097F6
:10088000FD7F147E00120DDA7522020209B1209656
:10089000177F147E00120DDA3096FD7F147E001251
:1008A0000DDA7522060209B12095177F147E001219
:1008B0000DDA3095FD7F147E00120DDA75220A02E2
:1008C00009B12094177F147E00120DDA3094FD7F59
:1008D000147E00120DDA75220E0209B17590FFC266
:1008E000912097177F147E00120DDA3097FD7F1448
:1008F0007E00120DDA7522030209B12096177F14CB
:100900007E00120DDA3096FD7F147E00120DDA752E
:1009100022070209B12095177F147E00120DDA30EC
:1009200095FD7F147E00120DDA75220B0209B120AD
:1009300094167F147E00120DDA3094FD7F147E0031
:10094000120DDA75220F80697590FFC290209716FC
:100950007F147E00120DDA3097FD7F147E00120D99
:10096000DA752204804B2096167F147E00120DDA71
:100970003096FD7F147E00120DDA75220880322039
:1009800095167F147E00120DDA3095FD7F147E00DF
:10099000120DDA75220C80192094167F147E001235
:1009A0000DDA3094FD7F147E00120DDA752210806E
:0509B00000AF227E00F3
:0109B500221F
:0D0E17004D61747269784E756D62657200F0
:030E380001230093
:1009B600120DF47BFF7A0E79177D017F01120D7BF4
:1009C600E523FB7A00750C027D017F02120D577537
:1009D60090FFC29320970F7F147E00120DDA7523C5
:1009E600013097FD803420960F7F147E00120DDAB9
:1009F6007523053096FD802220950F7F147E001208
:100A06000DDA7523093095FD80102094147F147E2D
:100A160000120DDA75230D3094FD7F147E00120D41
:100A2600DA7590FFC29220970F7F147E00120DDABE
:100A36007523023097FD803420960F7F147E0012B6
:100A46000DDA7523063096FD802220950F7F147EE1
:100A560000120DDA75230A3095FD80102094147F5C
:100A6600147E00120DDA75230E3094FD7F147E007D
:100A7600120DDA7590FFC29120970F7F147E001237
:100A86000DDA7523033097FD803420960F7F147E90
:100A960000120DDA7523073096FD802220950F7F10
:100AA600147E00120DDA75230B3095FD801020940C
:100AB600147F147E00120DDA75230F3094FD7F1417
:100AC6007E00120DDA7590FFC29020970F7F147E7C
:100AD60000120DDA7523043097FD803420960F7FBF
:100AE600147E00120DDA7523083096FD80222095BB
:100AF6000F7F147E00120DDA75230C3095FD8010E1
:100B06002094147F147E00120DDA7523103094FDA4
:100B16007F147E00120DDAE52370030209D5FB7AF5
:0E0B260000750C027D017F02120D570209D5E9
:060E0800C2A58F80D2A7F5
:080E0E007F027EEFDEFEDFFC37
:010E160022B9
:0A0E2400C2A6120E08C2A7020E0EAD
:100D9E00CFCDCFCECCCE120B737C007D0A120B734F
:040DAE00ED2430FF01
:0A0DB200D2A6120E08C2A7020E0E10
:100DBC00AE07EEFB7A0064017004ED148009EB645D
:0E0DCC00024A7009ED243F4480FF120E2422DB
:100DF4007F38120E247F0C120E247F06120E247FDD
:040E040001020E24B5
:0A0E2E00AC03120DBCAF04020DB2BC
:060D7B008B088A09890AB9
:100D8100120DBCE4FDAB08AA09A90A8D8275830086
:0C0D9100120B34FF6006120DB20D80E959
:010D9D002233
:0A0D2600EF24FFFDEE34FFFC7F0A0E
:080D30008E0D8F0E8C0F8D104B
:100D38007F017E00E4FBEBC39510E50F6480F87437
:0E0D48008098500AAC0DAD0E120B610B80E8C6
:010D5600227A
:040D57008A0A8B0B6E
:100D5B00120DBCAA0CEAFF7E00D394007480948021
:0F0D6B00400D120D26AC0AAD0B120D9E1A80E63C
:010D7A002256
:040C9F008B828A8337
:100CA300120DBCC3E58364809480400D7F2B120D2D
:100CB300B285831685821780107F2D120DB2C3E48F
:100CC3009582F517E49583F516AA15EAFF7E00D3FE
:100CD300940074809480400D120D26AC16AD17124B
:050CE3000D9E1A80E6E1
:010CE80022E9
:040C54008A1A8B1B52
:100C5800120DBCAA1CEAD39400748094804037EA31
:100C680024FFFDE434FFFC7F107E00120D30AC1A27
:100C7800AD1BCFCDCFCECCCE120B73EF540FFEC32E
:100C8800940A74809480EE5004243080022437FF44
:060C9800120DB21A80BF2C
:010C9E002233
:040CE9008A1F8B20B3
:100CED00120DBCAA21EAFF7E00D39400748094807B
:100CFD004026EF24FFFDEE34FFFC7F02120D30ACD9
:100D0D001FAD20CFCDCFCECCCE120B73EF5401241F
:080D1D0030FF120DB21A80CD67
:010D250022AB
:0A0DDA00EF1FAC0670011E4C600F05
:0D0DE400007508027509C7D509FDD508FA8C
:030DF10080E72276
:100BD4000209B6E493A3F8E493A34003F68001F278
:100BE40008DFF48029E493A3F85407240CC8C33322
:100BF400C4540F4420C8834004F456800146F6DFF1
:100C0400E4800B0102040810204080900E38E47E3A
:100C1400019360BCA3FF543F30E509541FFEE493E5
:100C2400A360010ECF54C025E060A840B8E493A3AC
:100C3400FAE493A3F8E493A3C8C582C8CAC583CAD7
:100C4400F0A3C8C582C8CAC583CADFE9DEE780BE8F
:010E3B0000B6
:100B3400BB010CE58229F582E5833AF583E0225076
:100B440006E92582F8E622BBFE06E92582F8E222C0
:0D0B5400E58229F582E5833AF583E49322DA
:100B6100EF8DF0A4A8F0CF8CF0A428CE8DF0A42EA8
:020B7100FE2262
:100B7300BC000BBE0029EF8DF084FFADF022E4CC66
:100B8300F875F008EF2FFFEE33FEEC33FCEE9DEC2F
:100B9300984005FCEE9DFE0FD5F0E9E4CEFD22ED75
:100BA300F8F5F0EE8420D21CFEADF075F008EF2FBF
:100BB300FFED33FD4007985006D5F0F222C398FDB0
:050BC3000FD5F0EA224D
:00000001FF
