:030000000209CF23
:0C09CF00787FE4F6D8FD75811402097AE7
:0909DB003F065B4F666D7D077F4E
:0A09B400EFD394007480948040108B
:0D09BE00007513027514C7D514FDD513FA8A
:0409CB001F80E62281
:0408F6008F088D09D1
:1008FA00780A7C007D007BFF7A0979DB7E007F091C
:10090A001208D0E50814B40800505490092375F071
:10091A0003A4C58325F0C5837302093B02093F027C
:10092A00094702094B02095302095702095F0209E2
:10093A0063D2A28002C2A2D2A3D2A48022D2A2806F
:10094A0002C2A2C2A3D2A48016D2A28002C2A2D29A
:10095A00A3C2A4800AD2A28002C2A2C2A3C2A47461
:0F096A000A2509F8E6F5807FE81209B4E4F58064
:01097900225B
:10097A007D017F011208F67D027F021208F67D03CF
:10098A007F031208F67D047F041208F67D057F05B1
:10099A001208F67D067F061208F67D077F07120801
:0A09AA00F67D087F081208F680C6EB
:10080000E709F608DFFA8046E709F208DFFA803EDA
:1008100088828C83E709F0A3DFFA8032E309F608C7
:10082000DFFA8078E309F208DFFA807088828C832F
:10083000E309F0A3DFFA806489828A83E0A3F608E3
:10084000DFFA805889828A83E0A3F208DFFA804CBD
:1008500080D280FA80C680D4806980F28033801094
:1008600080A680EA809A80A880DA80E280CA8033FD
:1008700089828A83ECFAE493A3C8C582C8CCC58375
:10088000CCF0A3C8C582C8CCC583CCDFE9DEE78045
:100890000D89828A83E493A3F608DFF9ECFAA9F0C4
:1008A000EDFB2289828A83ECFAE0A3C8C582C8CC1A
:1008B000C583CCF0A3C8C582C8CCC583CCDFEADE33
:1008C000E880DB89828A83E493A3F208DFF980CC95
:1008D00088F0EF60010E4E60C388F0ED2402B4048E
:1008E0000050B9F582EB2402B4040050AF23234535
:0608F00082239008507302
:00000001FF
